:020000040000FA
:1000000000008A150A12242BF200030E8301F1006E
:100010000A088A01F000040883120313EE00831219
:1000200003138B130B118A110A1258268A110A1214
:10003000831203138B17831203136E0883120313A7
:10004000840070088A008301710E8300F20E720E24
:10005000090083120313CD000330FF004D088A15F9
:100060000A12C0238A110A1283120313CE00CF0191
:100070004E08223ECD000C30D000003003184F0F48
:10008000D0074D08FE005008FF0080308A110A1288
:1000900096278A110A128A110A12CD258A110A128C
:1000A00083120313CD004D08031D81284E08513ED5
:1000B000CE004F0803184F0F003ECF0001304E070F
:1000C000CD00D001D00D4F08D0074D088312031387
:1000D0008400831383120313501883170030831294
:1000E00003138000831203134E088312031384004A
:1000F0008313831203134F188317003083120313E3
:100100008000080083120313C6000330FF00460876
:100110008A150A12C0238A110A1283120313C70018
:10012000C8014708223EC6000C30C9000030031841
:10013000480FC9074608FE004908FF0080308A11B1
:100140000A1296278A110A1283120313CA008A110F
:100150000A12CD258A110A1283120313C600013A2E
:10016000031D0A294708513EC6000030C90048084F
:100170000318480FC90701304607CA00CB01CB0D51
:100180004908CB074A0883120313840083138312A0
:1001900003134B18831783120313000883120313EE
:1001A000CC00CC0A4A088312031384008313831201
:1001B00003134B1883174C08831203138000831218
:1001C00003134708223ECA000C30CB00480803182E
:1001D000480FCB07CA0A0319CB0A4A08FE004B088E
:1001E000FF0080308A110A1296278A110A128312A0
:1001F00003134C06031D372946088312031384009A
:1002000083138312031349188317053083120313D2
:1002100080003729831203134708513EC70048085E
:100220000318480F003EC80001304707C600C90147
:10023000C90D4808C90746088312031384008313B5
:1002400083120313491883170030831203138000AD
:10025000831203134708831203138400831383124A
:10026000031348188317003083120313800008001B
:1002700083120313C2000330FF0042088A150A12DA
:10028000C0238A110A1283120313C300C401430856
:10029000223EC2000C30C50000300318440FC507D1
:1002A0004208FE004508FF0080308A110A12962796
:1002B0008A110A128A110A12CD258A110A12831292
:1002C0000313C200013A031D90294308513EC300A5
:1002D00044080318440F003EC40001304307C20025
:1002E000C501C50D4408C5074208831203138400E5
:1002F00083138312031345188317003083120313EB
:1003000080008312031343088312031384008313B2
:1003100083120313441883170430831203138000DD
:10032000080083120313BB000330FF003B088A154B
:100330000A12C0238A110A1283120313BC00BD01E2
:100340003C08223EBB000C30BE00003003183D0FBD
:10035000BE073B08FE003E08FF0080308A110A12EB
:1003600096278A110A1283120313BF008A110A12F8
:10037000CD258A110A1283120313BB00013A031D13
:10038000EE293C08513EBB000030BE003D0803187A
:100390003D0FBE0701303B07BF00C001C00D3E0846
:1003A000C0073F08831203138400831383120313CF
:1003B0004018831700308312031380008312031345
:1003C0003B088312031384008313831203133E1824
:1003D00083170430831203138000482A8312031307
:1003E0003C08513EBB000030BE003D0803183D0FE5
:1003F000BE0702303B07BF00C001C00D3E08C0076A
:100400003F088312031384008313831203134018DD
:10041000831783120313000883120313C100C10A58
:100420003F088312031384008313831203134018BD
:1004300083174108831203138000831203133C08BF
:10044000223EBC003D0803183D0F0C3EBD000230AB
:10045000BC070318BD0A3C08FE003D08FF008030C1
:100460008A110A1296278A110A1283120313BF00F7
:100470004102031C482A3B088312031384008313A0
:10048000831203133E188317033083120313800073
:10049000080083120313B5000330FF0035088A15E6
:1004A0000A12C0238A110A1283120313B600B7017D
:1004B0003608223EB5000C30B80000300318370F64
:1004C000B8073508FE003808FF0080308A110A128C
:1004D00096278A110A1283120313B9008A110A128D
:1004E000CD258A110A1283120313B500013A031DA8
:1004F000A62A3608513EB5000030B8003708031868
:10050000370FB80701303507B900BA01BA0D3808FE
:10051000BA07390883120313840083138312031369
:100520003A188317003083120313800083120313D9
:1005300035088312031384008313831203133818BE
:1005400083170430831203138000D32A831203130A
:100550003608513EB60037080318370F003EB70083
:1005600002303607B500B801B80D3708B8073508AE
:100570008312031384008313831203133818831721
:100580000030831203138000831203133608831292
:100590000313840083138312031337188317023065
:1005A000831203138000080083120313AE0003308C
:1005B000FF002E088A150A12C0238A110A1283121C
:1005C0000313AF00B0012F08223EAE000C30B10083
:1005D00000300318300FB1072E08FE003108FF006D
:1005E00080308A110A1296278A110A128312031385
:1005F000B2008A110A12CD258A110A12831203133E
:10060000AE00013A031D312B2F08513EAE000030E1
:10061000B10030080318300FB10701302E07B200C7
:10062000B301B30D3108B3073208831203138400FA
:1006300083138312031333188317003083120313B9
:100640008000831203132E08831203138400831384
:1006500083120313311883170430831203138000AD
:100660008A2B831203132F08513EAE000030B100D5
:1006700030080318300FB10701302E07B200B30164
:10068000B30D3108B30732088312031384008313B8
:100690008312031333188317831203130008831282
:1006A0000313B400B40A32088312031384008313C3
:1006B0008312031333188317340883120313800043
:1006C000831203132F08223EAF0030080318300FA7
:1006D0000C3EB000AF0A0319B00A2F08FE00300824
:1006E000FF0080308A110A1296278A110A1283129B
:1006F0000313B2003406031D8A2B2E088312031342
:10070000840083138312031331188317013083127B
:1007100003138000080083120313AA000330FF00B4
:100720002A088A150A12C0238A110A128312031397
:10073000AB00AC012B08513EAB00003003182C0F6E
:10074000003EAC002B088312031384008313831232
:1007500003132C1883178312031300088312031347
:10076000AD0006302D020318E62B0330831203136D
:100770008A00C330831203132D07031CC22B83127C
:1007800003138A0A8200C92BCE2BD32BD82BDD2B47
:10079000E22B831203132A08D422E62B83120313BD
:1007A0002A084922E62B831203132A089121E62BFB
:1007B000831203132A083821E62B831203132A0815
:1007C0008220E62B831203132A08292008008312B3
:1007D0000313A600033026020318132C0330FF0076
:1007E00026088A150A12C0238A110A1283120313DB
:1007F000A700A8012708513EA6000030A90000303C
:100800000318280FA90726088312031384008313F3
:10081000831203132918831783120313000883120A
:100820000313A700172C063083120313A7008312AB
:1008300003132708080083120313A501831203136F
:1008400025088B2383120313A50A03302502031CFA
:100850001E2C080083120313A0010330FF00831233
:10086000031320088A150A12C0238A110A12831260
:100870000313A100A2012108513EA3000030A400EF
:1008800000300318220FA4072308831203138400E7
:100890008313831203132418831705308312031361
:1008A0008000831203132108513EA100220803187F
:1008B000220F003EA20001302107A300A401A40DD5
:1008C0002208A407230883120313840083138312CE
:1008D000031324188317003083120313800002309F
:1008E00083120313A1070318A20A2108831203131A
:1008F000840083138312031322188317003083129A
:100900000313800083120313A00A03302002031C88
:100910002D2C080083160313DB007F08DC00053054
:100920005B020318C82C0430831203138A00A13021
:10093000831603135B07031CA02C831203138A0A7C
:100940008200A62CAD2CB42CBB2CC22C8316031316
:100950005C08831203138500C82C831603135C08FC
:10096000831203138600C82C831603135C088312BA
:1009700003138700C82C831603135C088312031328
:100980008800C82C831603135C08831203138900A4
:10099000080083160313D7007F08D80021305702C0
:1009A0000318CC2D063057020318012D5808031DDB
:1009B000EC2C0130D9005708003C0319E52C8316B4
:1009C0000313D90D013E031CDF2C83160313D90931
:1009D000831203138505CC2D013083160313D90030
:1009E0005708003C0319FA2C83160313D90D013E56
:1009F000031CF42C83160313590883120313850474
:100A0000CC2D0E308316031357020318352DFA3000
:100A10005707D9005808031D202D0130DA00590866
:100A2000003C0319192D83160313DA0D013E031C34
:100A3000132D83160313DA09831203138605CC2DB5
:100A4000013083160313DA005908003C03192E2DD8
:100A500083160313DA0D013E031C282D831603139E
:100A60005A08831203138604CC2D16308316031301
:100A700057020318692DF2305707D9005808031D93
:100A8000542D0130DA005908003C03194D2D83160E
:100A90000313DA0D013E031C472D83160313DA09F5
:100AA000831203138705CC2D013083160313DA005C
:100AB0005908003C0319622D83160313DA0D013E19
:100AC000031C5C2D831603135A0883120313870437
:100AD000CC2D1E3083160313570203189D2DEA30C8
:100AE0005707D9005808031D882D0130DA0059082E
:100AF000003C0319812D83160313DA0D013E031CFC
:100B00007B2D83160313DA09831203138805CC2D7A
:100B1000013083160313DA005908003C0319962D9F
:100B200083160313DA0D013E031C902D8316031365
:100B30005A08831203138804CC2DE2308316031362
:100B40005707D9005808031DB82D0130D7005908A0
:100B5000003C0319B12D83160313D70D013E031C6E
:100B6000AB2D83160313D709831203138905CC2DEC
:100B7000013083160313D7005908003C0319C62D12
:100B800083160313D70D013E031CC02D83160313D8
:100B90005708831203138904080083160313D40033
:100BA000213054020318512E063054020318E92D47
:100BB00083120313050883160313D5005408003C61
:100BC0000319E82D83160313D50C013E031CE22DF7
:100BD0004C2E0E308316031354020318032EFA30E2
:100BE0005407D60083120313060883160313D50097
:100BF0005608003C0319022E83160313D50C013E40
:100C0000031CFC2D4C2E16308316031354020318BC
:100C10001D2EF2305407D6008312031307088316E3
:100C20000313D5005608003C03191C2E831603132A
:100C3000D50C013E031C162E4C2E1E3083160313BA
:100C400054020318372EEA305407D60083120313D8
:100C5000080883160313D5005608003C0319362EE6
:100C600083160313D50C013E031C302E4C2EE230AC
:100C7000831603135407D60083120313090883163F
:100C80000313D5005608003C03194C2E831603139A
:100C9000D50C013E031C462E013083160313D505E7
:100CA000542E83160313D501831603135508080029
:100CB00083160313BA0A3A080A3A03195E2E08008B
:100CC00083160313A8010230FF00831603132808BC
:100CD0008A150A12C0238A110A1283160313A90067
:100CE000AA012908B03EAB000030AC000030031868
:100CF0002A0FAC072B088312031384008313831677
:100D000003132C188317831203130008831603138D
:100D1000AD002D08031D192F2908B03EA9002A088F
:100D200003182A0F003EAA00A90A0319AA0A2908D3
:100D30008312031384008313831603132A18831763
:100D400083120313000883160313AB002B08031947
:100D5000B82EAB0329088312031384008313831670
:100D600003132A1883172B08831203138000192FEB
:100D70000430FF008316031328088A150A12C023C3
:100D80008A110A1283160313AB00AC012B085A3EDA
:100D9000AB00003003182C0F003EAC0003302B07D3
:100DA000AD00AE01AE0D2C08AE072D088312031363
:100DB00084008313831603132E18831783120313DF
:100DC000000883160313AF0029088312031384005D
:100DD0008313831603132A1883172F088312031310
:100DE0008000831603132B088312031384008313DC
:100DF000831603132C18831783120313000883161A
:100E00000313A90083120313840A00088316031333
:100E1000AA000D278A110A12192F831603132A0814
:100E2000831203138A008316031329088312031302
:100E3000820083160313A80A05302802031C632EC0
:100E400008000030831603133A040319212FBA0354
:100E50006026212F080083160313A0010230FF0033
:100E60008316031320088A150A12C0238A110A1256
:100E700083160313A100A2012108B03EA100003097
:100E80000318220F003EA20001302107A300A40195
:100E9000A40D2208A4070430FF0020088A150A12B6
:100EA000C0238A110A1283160313A500A601250880
:100EB0005A3EA50000300318260F003EA60002305F
:100EC000A5070318A60A25088312031384008313B9
:100ED000831603132618831783120313000883163F
:100EE0000313A700230883120313840083138316BC
:100EF0000313241883172708831203138000831613
:100F0000031321088312031384008313831603132E
:100F100022188317003083120313800083160313F3
:100F2000A00A05302002031C2E2F0800003A0319E6
:100F30009D2F803A0319A42F00347E088400831368
:100F40007F188317000808007F088A007E08820047
:100F50000800003A0319B12F803A0319BB2FFF0193
:100F600000347E08840083137F1883170008FF0075
:100F7000840A000808008A110A12A427FD00FE0F47
:100F8000FF03FF0A8A110A12A427FC007D08FF0054
:100F90007C080800D1278A110A1221278A110A1217
:100FA00008008A150A1216248A110A128A110A12D6
:100FB000F0278A110A128A150A1256228A110A1279
:100FC0008A110A122A248A110A128A150A12F22098
:100FD0008A110A128A110A122B278A110A12080092
:100FE00083160313811281110110811401118312E0
:0E0FF00003138B170B178B160B110800003420
:1010000000308A110A12E7238A150A128316031385
:10101000E80001308A110A12E7238A150A128316A2
:101020000313E90002308A110A12E7238A150A1213
:1010300083160313EA000430831603136B020318AC
:10104000F1280830831203138A002F30831603130C
:101050006B07031C2E28831203138A0A820033288D
:1010600093286328C328831603136808013A031DD5
:101070003E28023083160313EB0056288316031311
:101080006908013A031D4928013083160313EB0058
:101090005628831603136A08013A031D562883163F
:1010A0000313EC01033083160313EB0000308A15A1
:1010B0000A12CA228A150A1200308A150A125F2102
:1010C0008A150A12F128831603136908013A031DD1
:1010D0006D2883160313EB01862883160313680813
:1010E000013A031D7828023083160313EB0086288B
:1010F000831603136A08013A031D862802308316FB
:101100000313EC00033083160313EB0000308A1541
:101110000A12CA228A150A1202308A150A125F219F
:101120008A150A12F128831603136908013A031D70
:101130009E28013083160313EB00B6288316031391
:101140006808013A031DA82883160313EB01B6288B
:10115000831603136A08013A031DB628013083166B
:101160000313EC00033083160313EB0000308A15E1
:101170000A12CA228A150A1201308A150A125F2140
:101180008A150A12F128831603136908013A031D10
:10119000CE28033083160313EB00E52883160313D0
:1011A0006808013A031DD928033083160313EB00A6
:1011B000E528831603136A08013A031DE528831600
:1011C00003136C0883160313EB0001308A150A120F
:1011D000CA228A150A1200308A150A125F218A155E
:1011E0000A12080083160313EB0102308A150A1253
:1011F000CA228A150A1203308A150A125F218A153B
:101200000A12080083160313DE0083160313E10A93
:10121000831603136208031D42291E30831603132D
:101220006102031C5E29831603135E08013A031D45
:101230002A291230FF0001308A150A12CA218A15A4
:101240000A120830FF0000308A150A12CA218A15D6
:101250000A123A290830FF0001308A150A12CA2101
:101260008A150A121230FF0000308A150A12CA21AC
:101270008A150A12013083160313E2008316031342
:10128000E1015E291E30831603136102031C5E29EF
:101290001230FF0001308A150A12CA218A150A127B
:1012A0001230FF0000308A150A12CA218A150A126C
:1012B00083160313E20183160313E101080083166A
:1012C0000313DD0003305D02031880298316031326
:1012D0005F08831603135D06031980298316031321
:1012E0005F0883160313E00083160313E1018316DE
:1012F0000313E201831603135D0883160313DF0053
:1013000008000330831603135F020318BC29093059
:10131000831203138A009530831603135F07031C9F
:101320009429831203138A0A82009829B729BA29BB
:10133000831603136008831603135F060319BC2981
:101340001230FF0001308A150A12CA218A150A12CA
:101350001230FF0000308A150A12CA218A150A12BB
:10136000831603135F0883160313E000BC290130C2
:101370000221BC2902300221080083160313DF0179
:1013800083160313E00183160313E101831603138D
:10139000E201080083160313C0007F08C100023079
:1013A00040020318FF29133041020318FF294008A7
:1013B000C63EC00000300318013EC2004108F53EA1
:1013C000C1000B300318013EC3004108FE00430872
:1013D000FF0080308A110A1296278A150A12831696
:1013E0000313C4004008831203138400831383167D
:1013F0000313421883174408831203138000080064
:1014000083160313450883160313BF0003190F2A1D
:10141000831603134508013A0319312A522A003072
:10142000FF000B308A110A12C9248A150A1283168A
:101430000313460883160313BF00FF0003308A110D
:101440000A128A248A150A120130FF000A308A1112
:101450000A12C9248A150A12013083160313C50023
:10146000552A0030FF000A308A110A12C9248A1551
:101470000A1283160313470883160313BF00FF00E5
:1014800003308A110A128A248A150A120130FF00D9
:101490000B308A110A12C9248A150A128316031303
:1014A000C501552A83160313C501080083160313CB
:1014B000BB01831603133B08C63EBC000030031873
:1014C000013EBD000730FE000C30FF0080308A1165
:1014D0000A1296278A150A1283160313BE003C08C7
:1014E0008312031384008313831603133D18831799
:1014F0003E0883120313800083160313BB0A0230D5
:101500003B02031C592A83160313C50108008316E6
:101510000313E60A831603136708031DAD2A283058
:10152000831603136602031CC92A0830FF0001302A
:101530008A150A12CA218A150A120830FF000030E3
:101540008A150A12CA218A150A120130831603135A
:10155000E70083160313E601C92A14308316031328
:101560006602031CC92A1230FF0001308A150A12D4
:10157000CA218A150A121230FF0000308A150A1299
:10158000CA218A150A1283160313E701831603136F
:10159000E601080083160313E30002306302031818
:1015A000EB2A8316031364088316031363060319D7
:1015B000EB2A83160313640883160313E5008316CE
:1015C0000313E60183160313E7018316031363086D
:1015D00083160313E4000800831603136408031939
:1015E000F62A6408013A0319152B162B83160313E8
:1015F00065088316031364060319162B1230FF00C7
:1016000001308A150A12CA218A150A121230FF0007
:1016100000308A150A12CA218A150A12831603138A
:10162000640883160313E500162B8722080083162F
:101630000313E40183160313E50183160313E60184
:1016400083160313E70108000830FE000C30FF008A
:1016500080308A110A12A9278A150A1283160313E9
:10166000C9007F08C8000A30CA000C30CB008316BE
:1016700003134808CC004908CD00FF30C807031CFD
:10168000C9034C084D040319BC2B04304A07CC0095
:10169000CD01CD0D4B08CD074C08FE004D08FF00D5
:1016A00080308A110A12A9278A150A128316031399
:1016B000CF007F08CE004A08FE004B08FF008030B4
:1016C0008A110A12A9278A150A1283160313D10058
:1016D000CD007F08D000CC0002304A07CC00CD01FD
:1016E000CD0D4B08CD074C08FE004D08FF008030A3
:1016F0008A110A12A9278A150A1283160313CD002C
:10170000D3007F08CC00D200831603134E08D2000A
:101710004F08D300FF30CE07031CCF0352085304F9
:101720000319B52B5008FE005108FF0080308A11C4
:101730000A1296278A150A1283160313D2004C0840
:101740008312031384008313831603134D18831726
:10175000520883120313800083160313D00A03195F
:10176000D10ACC0A0319CD0A842B06308316031341
:10177000CA070318CB0A372B8A110A12CA2F08008E
:101780008312031790007F089100920108309300A4
:1017900083120317101CCE2B110892078312031714
:1017A000100894000310140C90000310110D940005
:1017B00091001303940093001408031DC82B120812
:1017C000080000340A34003405341B340434003477
:1017D0000A340034083400340A34EC340A34003457
:1017E0000A348134093400340A34FC346034DA3485
:1017F000F2346634B634BE34E0347F34F634EE343A
:10180000FF349C34FD349E348E34C6343A34003474
:1018100002340034E1340B345A34003414340034CC
:10182000FE340734ED340034013400343F30831685
:10183000031385000F308600FF30870088010730D2
:1018400089000800073401340A34083401340A34AA
:06185000093401341434D8
:02400E003A3F37
:00000001FF
